{
  "_format": "hh-sol-artifact-1",
  "contractName": "VoterAuth",
  "sourceName": "contracts/VoterAuth.sol",
  "abi": [
    {
      "inputs": [
        {
          "internalType": "string",
          "name": "_email",
          "type": "string"
        },
        {
          "internalType": "string",
          "name": "_password",
          "type": "string"
        }
      ],
      "name": "login",
      "outputs": [
        {
          "internalType": "bool",
          "name": "",
          "type": "bool"
        }
      ],
      "stateMutability": "view",
      "type": "function"
    },
    {
      "inputs": [
        {
          "internalType": "string",
          "name": "_name",
          "type": "string"
        },
        {
          "internalType": "string",
          "name": "_email",
          "type": "string"
        },
        {
          "internalType": "string",
          "name": "_password",
          "type": "string"
        }
      ],
      "name": "register",
      "outputs": [],
      "stateMutability": "nonpayable",
      "type": "function"
    },
    {
      "inputs": [
        {
          "internalType": "address",
          "name": "",
          "type": "address"
        }
      ],
      "name": "voter",
      "outputs": [
        {
          "internalType": "string",
          "name": "name",
          "type": "string"
        },
        {
          "internalType": "string",
          "name": "email",
          "type": "string"
        },
        {
          "internalType": "string",
          "name": "hashedPassword",
          "type": "string"
        },
        {
          "internalType": "bool",
          "name": "isRegistered",
          "type": "bool"
        }
      ],
      "stateMutability": "view",
      "type": "function"
    },
    {
      "inputs": [],
      "name": "voterDetails",
      "outputs": [
        {
          "components": [
            {
              "internalType": "string",
              "name": "name",
              "type": "string"
            },
            {
              "internalType": "string",
              "name": "email",
              "type": "string"
            },
            {
              "internalType": "string",
              "name": "hashedPassword",
              "type": "string"
            },
            {
              "internalType": "bool",
              "name": "isRegistered",
              "type": "bool"
            }
          ],
          "internalType": "struct VoterAuth.Voter",
          "name": "",
          "type": "tuple"
        }
      ],
      "stateMutability": "view",
      "type": "function"
    }
  ],
  "bytecode": "0x6080604052348015600f57600080fd5b506111dc8061001f6000396000f3fe608060405234801561001057600080fd5b506004361061004c5760003560e01c80631237f0aa146100515780634cd08d031461006f57806358467dbc1461008b578063af0dbe54146100bb575b600080fd5b6100596100ee565b6040516100669190610a1c565b60405180910390f35b61008960048036038101906100849190610b87565b610315565b005b6100a560048036038101906100a09190610c2e565b6103e7565b6040516100b29190610cb5565b60405180910390f35b6100d560048036038101906100d09190610d2e565b610701565b6040516100e59493929190610da5565b60405180910390f35b6100f66108d6565b6000803373ffffffffffffffffffffffffffffffffffffffff1673ffffffffffffffffffffffffffffffffffffffff16815260200190815260200160002060405180608001604052908160008201805461014f90610e2e565b80601f016020809104026020016040519081016040528092919081815260200182805461017b90610e2e565b80156101c85780601f1061019d576101008083540402835291602001916101c8565b820191906000526020600020905b8154815290600101906020018083116101ab57829003601f168201915b505050505081526020016001820180546101e190610e2e565b80601f016020809104026020016040519081016040528092919081815260200182805461020d90610e2e565b801561025a5780601f1061022f5761010080835404028352916020019161025a565b820191906000526020600020905b81548152906001019060200180831161023d57829003601f168201915b5050505050815260200160028201805461027390610e2e565b80601f016020809104026020016040519081016040528092919081815260200182805461029f90610e2e565b80156102ec5780601f106102c1576101008083540402835291602001916102ec565b820191906000526020600020905b8154815290600101906020018083116102cf57829003601f168201915b505050505081526020016003820160009054906101000a900460ff161515151581525050905090565b60006040518060800160405280858152602001848152602001838152602001600115158152509050806000803373ffffffffffffffffffffffffffffffffffffffff1673ffffffffffffffffffffffffffffffffffffffff16815260200190815260200160002060008201518160000190816103919190611015565b5060208201518160010190816103a79190611015565b5060408201518160020190816103bd9190611015565b5060608201518160030160006101000a81548160ff02191690831515021790555090505050505050565b6000806000803373ffffffffffffffffffffffffffffffffffffffff1673ffffffffffffffffffffffffffffffffffffffff16815260200190815260200160002060405180608001604052908160008201805461044390610e2e565b80601f016020809104026020016040519081016040528092919081815260200182805461046f90610e2e565b80156104bc5780601f10610491576101008083540402835291602001916104bc565b820191906000526020600020905b81548152906001019060200180831161049f57829003601f168201915b505050505081526020016001820180546104d590610e2e565b80601f016020809104026020016040519081016040528092919081815260200182805461050190610e2e565b801561054e5780601f106105235761010080835404028352916020019161054e565b820191906000526020600020905b81548152906001019060200180831161053157829003601f168201915b5050505050815260200160028201805461056790610e2e565b80601f016020809104026020016040519081016040528092919081815260200182805461059390610e2e565b80156105e05780601f106105b5576101008083540402835291602001916105e0565b820191906000526020600020905b8154815290600101906020018083116105c357829003601f168201915b505050505081526020016003820160009054906101000a900460ff1615151515815250509050806060015161064a576040517f08c379a000000000000000000000000000000000000000000000000000000000815260040161064190611133565b60405180910390fd5b8360405160200161065b919061118f565b604051602081830303815290604052805190602001208160200151604051602001610686919061118f565b604051602081830303815290604052805190602001201480156106f85750826040516020016106b5919061118f565b6040516020818303038152906040528051906020012081604001516040516020016106e0919061118f565b60405160208183030381529060405280519060200120145b91505092915050565b600060205280600052604060002060009150905080600001805461072490610e2e565b80601f016020809104026020016040519081016040528092919081815260200182805461075090610e2e565b801561079d5780601f106107725761010080835404028352916020019161079d565b820191906000526020600020905b81548152906001019060200180831161078057829003601f168201915b5050505050908060010180546107b290610e2e565b80601f01602080910402602001604051908101604052809291908181526020018280546107de90610e2e565b801561082b5780601f106108005761010080835404028352916020019161082b565b820191906000526020600020905b81548152906001019060200180831161080e57829003601f168201915b50505050509080600201805461084090610e2e565b80601f016020809104026020016040519081016040528092919081815260200182805461086c90610e2e565b80156108b95780601f1061088e576101008083540402835291602001916108b9565b820191906000526020600020905b81548152906001019060200180831161089c57829003601f168201915b5050505050908060030160009054906101000a900460ff16905084565b60405180608001604052806060815260200160608152602001606081526020016000151581525090565b600081519050919050565b600082825260208201905092915050565b60005b8381101561093a57808201518184015260208101905061091f565b60008484015250505050565b6000601f19601f8301169050919050565b600061096282610900565b61096c818561090b565b935061097c81856020860161091c565b61098581610946565b840191505092915050565b60008115159050919050565b6109a581610990565b82525050565b600060808301600083015184820360008601526109c88282610957565b915050602083015184820360208601526109e28282610957565b915050604083015184820360408601526109fc8282610957565b9150506060830151610a11606086018261099c565b508091505092915050565b60006020820190508181036000830152610a3681846109ab565b905092915050565b6000604051905090565b600080fd5b600080fd5b600080fd5b600080fd5b7f4e487b7100000000000000000000000000000000000000000000000000000000600052604160045260246000fd5b610a9482610946565b810181811067ffffffffffffffff82111715610ab357610ab2610a5c565b5b80604052505050565b6000610ac6610a3e565b9050610ad28282610a8b565b919050565b600067ffffffffffffffff821115610af257610af1610a5c565b5b610afb82610946565b9050602081019050919050565b82818337600083830152505050565b6000610b2a610b2584610ad7565b610abc565b905082815260208101848484011115610b4657610b45610a57565b5b610b51848285610b08565b509392505050565b600082601f830112610b6e57610b6d610a52565b5b8135610b7e848260208601610b17565b91505092915050565b600080600060608486031215610ba057610b9f610a48565b5b600084013567ffffffffffffffff811115610bbe57610bbd610a4d565b5b610bca86828701610b59565b935050602084013567ffffffffffffffff811115610beb57610bea610a4d565b5b610bf786828701610b59565b925050604084013567ffffffffffffffff811115610c1857610c17610a4d565b5b610c2486828701610b59565b9150509250925092565b60008060408385031215610c4557610c44610a48565b5b600083013567ffffffffffffffff811115610c6357610c62610a4d565b5b610c6f85828601610b59565b925050602083013567ffffffffffffffff811115610c9057610c8f610a4d565b5b610c9c85828601610b59565b9150509250929050565b610caf81610990565b82525050565b6000602082019050610cca6000830184610ca6565b92915050565b600073ffffffffffffffffffffffffffffffffffffffff82169050919050565b6000610cfb82610cd0565b9050919050565b610d0b81610cf0565b8114610d1657600080fd5b50565b600081359050610d2881610d02565b92915050565b600060208284031215610d4457610d43610a48565b5b6000610d5284828501610d19565b91505092915050565b600082825260208201905092915050565b6000610d7782610900565b610d818185610d5b565b9350610d9181856020860161091c565b610d9a81610946565b840191505092915050565b60006080820190508181036000830152610dbf8187610d6c565b90508181036020830152610dd38186610d6c565b90508181036040830152610de78185610d6c565b9050610df66060830184610ca6565b95945050505050565b7f4e487b7100000000000000000000000000000000000000000000000000000000600052602260045260246000fd5b60006002820490506001821680610e4657607f821691505b602082108103610e5957610e58610dff565b5b50919050565b60008190508160005260206000209050919050565b60006020601f8301049050919050565b600082821b905092915050565b600060088302610ec17fffffffffffffffffffffffffffffffffffffffffffffffffffffffffffffffff82610e84565b610ecb8683610e84565b95508019841693508086168417925050509392505050565b6000819050919050565b6000819050919050565b6000610f12610f0d610f0884610ee3565b610eed565b610ee3565b9050919050565b6000819050919050565b610f2c83610ef7565b610f40610f3882610f19565b848454610e91565b825550505050565b600090565b610f55610f48565b610f60818484610f23565b505050565b5b81811015610f8457610f79600082610f4d565b600181019050610f66565b5050565b601f821115610fc957610f9a81610e5f565b610fa384610e74565b81016020851015610fb2578190505b610fc6610fbe85610e74565b830182610f65565b50505b505050565b600082821c905092915050565b6000610fec60001984600802610fce565b1980831691505092915050565b60006110058383610fdb565b9150826002028217905092915050565b61101e82610900565b67ffffffffffffffff81111561103757611036610a5c565b5b6110418254610e2e565b61104c828285610f88565b600060209050601f83116001811461107f576000841561106d578287015190505b6110778582610ff9565b8655506110df565b601f19841661108d86610e5f565b60005b828110156110b557848901518255600182019150602085019450602081019050611090565b868310156110d257848901516110ce601f891682610fdb565b8355505b6001600288020188555050505b505050505050565b7f4e6f206163636f756e7420657869737473000000000000000000000000000000600082015250565b600061111d601183610d5b565b9150611128826110e7565b602082019050919050565b6000602082019050818103600083015261114c81611110565b9050919050565b600081905092915050565b600061116982610900565b6111738185611153565b935061118381856020860161091c565b80840191505092915050565b600061119b828461115e565b91508190509291505056fea264697066735822122001ea2ea9d0a99269272594fc40b6f3ebfa09b95d7b9380c0906e64822c7c1d4c64736f6c634300081b0033",
  "linkReferences": {},
  "deployedLinkReferences": {}
}