{
  "_format": "hh-sol-artifact-1",
  "contractName": "RankedVotingSystem",
  "sourceName": "contracts/RankingVotingSystem.sol",
  "abi": [
    {
      "inputs": [],
      "stateMutability": "nonpayable",
      "type": "constructor"
    },
    {
      "inputs": [
        {
          "internalType": "uint256",
          "name": "electionId",
          "type": "uint256"
        },
        {
          "internalType": "string",
          "name": "_name",
          "type": "string"
        },
        {
          "internalType": "string",
          "name": "_email",
          "type": "string"
        }
      ],
      "name": "addCandidate",
      "outputs": [],
      "stateMutability": "nonpayable",
      "type": "function"
    },
    {
      "inputs": [],
      "name": "admin",
      "outputs": [
        {
          "internalType": "address",
          "name": "",
          "type": "address"
        }
      ],
      "stateMutability": "view",
      "type": "function"
    },
    {
      "inputs": [
        {
          "internalType": "string",
          "name": "_name",
          "type": "string"
        }
      ],
      "name": "createElection",
      "outputs": [],
      "stateMutability": "nonpayable",
      "type": "function"
    },
    {
      "inputs": [
        {
          "internalType": "uint256",
          "name": "",
          "type": "uint256"
        }
      ],
      "name": "elections",
      "outputs": [
        {
          "internalType": "string",
          "name": "name",
          "type": "string"
        },
        {
          "internalType": "uint256",
          "name": "totalVotes",
          "type": "uint256"
        }
      ],
      "stateMutability": "view",
      "type": "function"
    },
    {
      "inputs": [
        {
          "internalType": "uint256",
          "name": "electionId",
          "type": "uint256"
        },
        {
          "internalType": "uint256",
          "name": "index",
          "type": "uint256"
        }
      ],
      "name": "getCandidate",
      "outputs": [
        {
          "internalType": "string",
          "name": "name",
          "type": "string"
        },
        {
          "internalType": "string",
          "name": "email",
          "type": "string"
        },
        {
          "internalType": "uint256",
          "name": "totalRank",
          "type": "uint256"
        },
        {
          "internalType": "uint256",
          "name": "voteCount",
          "type": "uint256"
        }
      ],
      "stateMutability": "view",
      "type": "function"
    },
    {
      "inputs": [
        {
          "internalType": "uint256",
          "name": "electionId",
          "type": "uint256"
        }
      ],
      "name": "getCandidateCount",
      "outputs": [
        {
          "internalType": "uint256",
          "name": "",
          "type": "uint256"
        }
      ],
      "stateMutability": "view",
      "type": "function"
    },
    {
      "inputs": [],
      "name": "getElectionCount",
      "outputs": [
        {
          "internalType": "uint256",
          "name": "",
          "type": "uint256"
        }
      ],
      "stateMutability": "view",
      "type": "function"
    },
    {
      "inputs": [
        {
          "internalType": "uint256",
          "name": "electionId",
          "type": "uint256"
        }
      ],
      "name": "getResults",
      "outputs": [
        {
          "components": [
            {
              "internalType": "string",
              "name": "name",
              "type": "string"
            },
            {
              "internalType": "string",
              "name": "email",
              "type": "string"
            },
            {
              "internalType": "uint256",
              "name": "totalRank",
              "type": "uint256"
            },
            {
              "internalType": "uint256",
              "name": "voteCount",
              "type": "uint256"
            }
          ],
          "internalType": "struct RankedVotingSystem.Candidate[]",
          "name": "",
          "type": "tuple[]"
        }
      ],
      "stateMutability": "view",
      "type": "function"
    },
    {
      "inputs": [
        {
          "internalType": "uint256",
          "name": "electionId",
          "type": "uint256"
        },
        {
          "internalType": "uint256[]",
          "name": "_rankings",
          "type": "uint256[]"
        }
      ],
      "name": "rankCandidates",
      "outputs": [],
      "stateMutability": "nonpayable",
      "type": "function"
    }
  ],
  "bytecode": "0x6080604052348015600f57600080fd5b50336000806101000a81548173ffffffffffffffffffffffffffffffffffffffff021916908373ffffffffffffffffffffffffffffffffffffffff160217905550611d938061005f6000396000f3fe608060405234801561001057600080fd5b50600436106100935760003560e01c80634bd46448116100665780634bd464481461011e5780635e6fef011461015157806381a60c0d14610182578063e6c62efc146101b2578063f851a440146101ce57610093565b806315cf4a5f14610098578063213785a0146100b457806326f6a2aa146100d25780633c58f95814610102575b600080fd5b6100b260048036038101906100ad91906110ad565b6101ec565b005b6100bc6102bd565b6040516100c9919061110f565b60405180910390f35b6100ec60048036038101906100e79190611156565b6102ca565b6040516100f9919061110f565b60405180910390f35b61011c6004803603810190610117919061124b565b610343565b005b610138600480360381019061013391906112a7565b610668565b6040516101489493929190611366565b60405180910390f35b61016b60048036038101906101669190611156565b6108d1565b6040516101799291906113b9565b60405180910390f35b61019c60048036038101906101979190611156565b61098d565b6040516101a9919061156e565b60405180910390f35b6101cc60048036038101906101c79190611590565b610d0a565b005b6101d6610e9d565b6040516101e3919061165c565b60405180910390f35b60008054906101000a900473ffffffffffffffffffffffffffffffffffffffff1673ffffffffffffffffffffffffffffffffffffffff163373ffffffffffffffffffffffffffffffffffffffff161461027a576040517f08c379a0000000000000000000000000000000000000000000000000000000008152600401610271906116e9565b60405180910390fd5b6000600180816001815401808255809150500390600052602060002090600502019050818160000190816102ae9190611915565b50600081600401819055505050565b6000600180549050905090565b60006001805490508210610313576040517f08c379a000000000000000000000000000000000000000000000000000000000815260040161030a90611a33565b60405180910390fd5b6001828154811061032757610326611a53565b5b9060005260206000209060050201600101805490509050919050565b600180549050821061038a576040517f08c379a000000000000000000000000000000000000000000000000000000000815260040161038190611a33565b60405180910390fd5b6000600183815481106103a05761039f611a53565b5b906000526020600020906005020190508060020160003373ffffffffffffffffffffffffffffffffffffffff1673ffffffffffffffffffffffffffffffffffffffff16815260200190815260200160002060009054906101000a900460ff161561043f576040517f08c379a000000000000000000000000000000000000000000000000000000000815260040161043690611af4565b60405180910390fd5b8060010180549050825114610489576040517f08c379a000000000000000000000000000000000000000000000000000000000815260040161048090611b86565b60405180910390fd5b818160030160003373ffffffffffffffffffffffffffffffffffffffff1673ffffffffffffffffffffffffffffffffffffffff16815260200190815260200160002090805190602001906104de929190610ec1565b5060018160020160003373ffffffffffffffffffffffffffffffffffffffff1673ffffffffffffffffffffffffffffffffffffffff16815260200190815260200160002060006101000a81548160ff02191690831515021790555060005b825181101561064857600083828151811061055a57610559611a53565b5b60200260200101519050826001018054905081106105ad576040517f08c379a00000000000000000000000000000000000000000000000000000000081526004016105a490611bf2565b60405180910390fd5b8183600101805490506105c09190611c41565b8360010182815481106105d6576105d5611a53565b5b906000526020600020906004020160020160008282546105f69190611c75565b9250508190555082600101818154811061061357610612611a53565b5b9060005260206000209060040201600301600081548092919061063590611ca9565b919050555050808060010191505061053c565b5080600401600081548092919061065e90611ca9565b9190505550505050565b60608060008060018054905086106106b5576040517f08c379a00000000000000000000000000000000000000000000000000000000081526004016106ac90611a33565b60405180910390fd5b600186815481106106c9576106c8611a53565b5b906000526020600020906005020160010180549050851061071f576040517f08c379a000000000000000000000000000000000000000000000000000000000815260040161071690611d3d565b60405180910390fd5b60006001878154811061073557610734611a53565b5b9060005260206000209060050201600101868154811061075857610757611a53565b5b906000526020600020906004020160405180608001604052908160008201805461078190611738565b80601f01602080910402602001604051908101604052809291908181526020018280546107ad90611738565b80156107fa5780601f106107cf576101008083540402835291602001916107fa565b820191906000526020600020905b8154815290600101906020018083116107dd57829003601f168201915b5050505050815260200160018201805461081390611738565b80601f016020809104026020016040519081016040528092919081815260200182805461083f90611738565b801561088c5780601f106108615761010080835404028352916020019161088c565b820191906000526020600020905b81548152906001019060200180831161086f57829003601f168201915b50505050508152602001600282015481526020016003820154815250509050806000015181602001518260400151836060015194509450945094505092959194509250565b600181815481106108e157600080fd5b906000526020600020906005020160009150905080600001805461090490611738565b80601f016020809104026020016040519081016040528092919081815260200182805461093090611738565b801561097d5780601f106109525761010080835404028352916020019161097d565b820191906000526020600020905b81548152906001019060200180831161096057829003601f168201915b5050505050908060040154905082565b606060018054905082106109d6576040517f08c379a00000000000000000000000000000000000000000000000000000000081526004016109cd90611a33565b60405180910390fd5b6000600183815481106109ec576109eb611a53565b5b906000526020600020906005020190506000816001018054905067ffffffffffffffff811115610a1f57610a1e610f82565b5b604051908082528060200260200182016040528015610a5857816020015b610a45610f0e565b815260200190600190039081610a3d5790505b50905060005b8260010180549050811015610bff57826001018181548110610a8357610a82611a53565b5b9060005260206000209060040201604051806080016040529081600082018054610aac90611738565b80601f0160208091040260200160405190810160405280929190818152602001828054610ad890611738565b8015610b255780601f10610afa57610100808354040283529160200191610b25565b820191906000526020600020905b815481529060010190602001808311610b0857829003601f168201915b50505050508152602001600182018054610b3e90611738565b80601f0160208091040260200160405190810160405280929190818152602001828054610b6a90611738565b8015610bb75780601f10610b8c57610100808354040283529160200191610bb7565b820191906000526020600020905b815481529060010190602001808311610b9a57829003601f168201915b5050505050815260200160028201548152602001600382015481525050828281518110610be757610be6611a53565b5b60200260200101819052508080600101915050610a5e565b5060005b8151811015610cff576000600182610c1b9190611c75565b90505b8251811015610cf157828181518110610c3a57610c39611a53565b5b602002602001015160400151838381518110610c5957610c58611a53565b5b6020026020010151604001511015610ce4576000838381518110610c8057610c7f611a53565b5b60200260200101519050838281518110610c9d57610c9c611a53565b5b6020026020010151848481518110610cb857610cb7611a53565b5b602002602001018190525080848381518110610cd757610cd6611a53565b5b6020026020010181905250505b8080600101915050610c1e565b508080600101915050610c03565b508092505050919050565b60008054906101000a900473ffffffffffffffffffffffffffffffffffffffff1673ffffffffffffffffffffffffffffffffffffffff163373ffffffffffffffffffffffffffffffffffffffff1614610d98576040517f08c379a0000000000000000000000000000000000000000000000000000000008152600401610d8f906116e9565b60405180910390fd5b6001805490508310610ddf576040517f08c379a0000000000000000000000000000000000000000000000000000000008152600401610dd690611a33565b60405180910390fd5b600060018481548110610df557610df4611a53565b5b9060005260206000209060050201905080600101604051806080016040528085815260200184815260200160008152602001600081525090806001815401808255809150506001900390600052602060002090600402016000909190919091506000820151816000019081610e6a9190611915565b506020820151816001019081610e809190611915565b506040820151816002015560608201518160030155505050505050565b60008054906101000a900473ffffffffffffffffffffffffffffffffffffffff1681565b828054828255906000526020600020908101928215610efd579160200282015b82811115610efc578251825591602001919060010190610ee1565b5b509050610f0a9190610f36565b5090565b6040518060800160405280606081526020016060815260200160008152602001600081525090565b5b80821115610f4f576000816000905550600101610f37565b5090565b6000604051905090565b600080fd5b600080fd5b600080fd5b600080fd5b6000601f19601f8301169050919050565b7f4e487b7100000000000000000000000000000000000000000000000000000000600052604160045260246000fd5b610fba82610f71565b810181811067ffffffffffffffff82111715610fd957610fd8610f82565b5b80604052505050565b6000610fec610f53565b9050610ff88282610fb1565b919050565b600067ffffffffffffffff82111561101857611017610f82565b5b61102182610f71565b9050602081019050919050565b82818337600083830152505050565b600061105061104b84610ffd565b610fe2565b90508281526020810184848401111561106c5761106b610f6c565b5b61107784828561102e565b509392505050565b600082601f83011261109457611093610f67565b5b81356110a484826020860161103d565b91505092915050565b6000602082840312156110c3576110c2610f5d565b5b600082013567ffffffffffffffff8111156110e1576110e0610f62565b5b6110ed8482850161107f565b91505092915050565b6000819050919050565b611109816110f6565b82525050565b60006020820190506111246000830184611100565b92915050565b611133816110f6565b811461113e57600080fd5b50565b6000813590506111508161112a565b92915050565b60006020828403121561116c5761116b610f5d565b5b600061117a84828501611141565b91505092915050565b600067ffffffffffffffff82111561119e5761119d610f82565b5b602082029050602081019050919050565b600080fd5b60006111c76111c284611183565b610fe2565b905080838252602082019050602084028301858111156111ea576111e96111af565b5b835b8181101561121357806111ff8882611141565b8452602084019350506020810190506111ec565b5050509392505050565b600082601f83011261123257611231610f67565b5b81356112428482602086016111b4565b91505092915050565b6000806040838503121561126257611261610f5d565b5b600061127085828601611141565b925050602083013567ffffffffffffffff81111561129157611290610f62565b5b61129d8582860161121d565b9150509250929050565b600080604083850312156112be576112bd610f5d565b5b60006112cc85828601611141565b92505060206112dd85828601611141565b9150509250929050565b600081519050919050565b600082825260208201905092915050565b60005b83811015611321578082015181840152602081019050611306565b60008484015250505050565b6000611338826112e7565b61134281856112f2565b9350611352818560208601611303565b61135b81610f71565b840191505092915050565b60006080820190508181036000830152611380818761132d565b90508181036020830152611394818661132d565b90506113a36040830185611100565b6113b06060830184611100565b95945050505050565b600060408201905081810360008301526113d3818561132d565b90506113e26020830184611100565b9392505050565b600081519050919050565b600082825260208201905092915050565b6000819050602082019050919050565b600082825260208201905092915050565b6000611431826112e7565b61143b8185611415565b935061144b818560208601611303565b61145481610f71565b840191505092915050565b611468816110f6565b82525050565b6000608083016000830151848203600086015261148b8282611426565b915050602083015184820360208601526114a58282611426565b91505060408301516114ba604086018261145f565b5060608301516114cd606086018261145f565b508091505092915050565b60006114e4838361146e565b905092915050565b6000602082019050919050565b6000611504826113e9565b61150e81856113f4565b93508360208202850161152085611405565b8060005b8581101561155c578484038952815161153d85826114d8565b9450611548836114ec565b925060208a01995050600181019050611524565b50829750879550505050505092915050565b6000602082019050818103600083015261158881846114f9565b905092915050565b6000806000606084860312156115a9576115a8610f5d565b5b60006115b786828701611141565b935050602084013567ffffffffffffffff8111156115d8576115d7610f62565b5b6115e48682870161107f565b925050604084013567ffffffffffffffff81111561160557611604610f62565b5b6116118682870161107f565b9150509250925092565b600073ffffffffffffffffffffffffffffffffffffffff82169050919050565b60006116468261161b565b9050919050565b6116568161163b565b82525050565b6000602082019050611671600083018461164d565b92915050565b7f4f6e6c792061646d696e2063616e20706572666f726d2074686973206163746960008201527f6f6e000000000000000000000000000000000000000000000000000000000000602082015250565b60006116d36022836112f2565b91506116de82611677565b604082019050919050565b60006020820190508181036000830152611702816116c6565b9050919050565b7f4e487b7100000000000000000000000000000000000000000000000000000000600052602260045260246000fd5b6000600282049050600182168061175057607f821691505b60208210810361176357611762611709565b5b50919050565b60008190508160005260206000209050919050565b60006020601f8301049050919050565b600082821b905092915050565b6000600883026117cb7fffffffffffffffffffffffffffffffffffffffffffffffffffffffffffffffff8261178e565b6117d5868361178e565b95508019841693508086168417925050509392505050565b6000819050919050565b600061181261180d611808846110f6565b6117ed565b6110f6565b9050919050565b6000819050919050565b61182c836117f7565b61184061183882611819565b84845461179b565b825550505050565b600090565b611855611848565b611860818484611823565b505050565b5b818110156118845761187960008261184d565b600181019050611866565b5050565b601f8211156118c95761189a81611769565b6118a38461177e565b810160208510156118b2578190505b6118c66118be8561177e565b830182611865565b50505b505050565b600082821c905092915050565b60006118ec600019846008026118ce565b1980831691505092915050565b600061190583836118db565b9150826002028217905092915050565b61191e826112e7565b67ffffffffffffffff81111561193757611936610f82565b5b6119418254611738565b61194c828285611888565b600060209050601f83116001811461197f576000841561196d578287015190505b61197785826118f9565b8655506119df565b601f19841661198d86611769565b60005b828110156119b557848901518255600182019150602085019450602081019050611990565b868310156119d257848901516119ce601f8916826118db565b8355505b6001600288020188555050505b505050505050565b7f456c656374696f6e20646f6573206e6f74206578697374000000000000000000600082015250565b6000611a1d6017836112f2565b9150611a28826119e7565b602082019050919050565b60006020820190508181036000830152611a4c81611a10565b9050919050565b7f4e487b7100000000000000000000000000000000000000000000000000000000600052603260045260246000fd5b7f596f75206861766520616c726561647920766f74656420696e2074686973206560008201527f6c656374696f6e00000000000000000000000000000000000000000000000000602082015250565b6000611ade6027836112f2565b9150611ae982611a82565b604082019050919050565b60006020820190508181036000830152611b0d81611ad1565b9050919050565b7f52616e6b696e67206c656e677468206d757374206d6174636820746865206e7560008201527f6d626572206f662063616e646964617465730000000000000000000000000000602082015250565b6000611b706032836112f2565b9150611b7b82611b14565b604082019050919050565b60006020820190508181036000830152611b9f81611b63565b9050919050565b7f496e76616c69642072616e6b2070726f76696465640000000000000000000000600082015250565b6000611bdc6015836112f2565b9150611be782611ba6565b602082019050919050565b60006020820190508181036000830152611c0b81611bcf565b9050919050565b7f4e487b7100000000000000000000000000000000000000000000000000000000600052601160045260246000fd5b6000611c4c826110f6565b9150611c57836110f6565b9250828203905081811115611c6f57611c6e611c12565b5b92915050565b6000611c80826110f6565b9150611c8b836110f6565b9250828201905080821115611ca357611ca2611c12565b5b92915050565b6000611cb4826110f6565b91507fffffffffffffffffffffffffffffffffffffffffffffffffffffffffffffffff8203611ce657611ce5611c12565b5b600182019050919050565b7f43616e64696461746520646f6573206e6f742065786973740000000000000000600082015250565b6000611d276018836112f2565b9150611d3282611cf1565b602082019050919050565b60006020820190508181036000830152611d5681611d1a565b905091905056fea2646970667358221220830694afb165d5595b8f0fb6399d8b17b1a4bd984ca940469d33067af5b5c65b64736f6c634300081b0033",
  "linkReferences": {},
  "deployedLinkReferences": {}
}